:020000040000FA
:040000004FEF10F0BE
:100800000048692120496E743A256E2532662025FC
:1008100073202563005365636F6E64733A2025640B
:070820000050657721000084
:100828000450800B0D6E045004240F6E03AE1FEFAE
:1008380004F021EF04F022EF04F00F800F50D8B439
:1008480028EF04F02AEF04F03FEF04F00F28D8A4B3
:1008580030EF04F032EF04F03AEF04F0000E016ECE
:10086800000E026E000E036E000E046E038E000E64
:10087800046E47EF04F0000E016E000E026E000ECB
:10088800036E000E046E0850800B0E6E0D500E188D
:10089800D8B451EF04F053EF04F054EF04F00D8C8A
:1008A800085008240E6E07AE5CEF04F05EEF04F00B
:1008B8005FEF04F00E800E50D8B465EF04F067EFD8
:1008C80004F07CEF04F00E28D8A46DEF04F06FEF6D
:1008D80004F077EF04F0000E056E000E066E000EB1
:1008E800076E000E086E078E000E086E84EF04F087
:1008F800000E056E000E066E000E076E000E086EE6
:100908000F500E5CD8B08BEF04F08DEF04F0B4EF0D
:1009180004F00DAC92EF04F094EF04F096EF04F0BD
:10092800800E0D1A0FC010F00EC00FF010C00EF0A0
:1009380001C010F005C001F010C005F002C010F0B1
:1009480006C002F010C006F003C010F007C003F0A4
:1009580010C007F004C010F008C004F010C008F080
:10096800000E106E0F500EC009F00A6A095E000EE4
:100978000A5A0ABEC9EF04F00A5009E11A0E095CC6
:10098800D8A0C9EF04F0CBEF04F002EF05F0015056
:10099800021003100410D8A4D4EF04F0D7EF04F029
:1009A800010ED8EF04F0000E106E000E016E000E5E
:1009B800026E000E036E000E046E0EC00FF00BEFF9
:1009C80005F010A0EAEF04F0ECEF04F0F2EF04F009
:1009D800D89010300109106EF4EF04F0D89010325E
:1009E80001A0F9EF04F0FBEF04F0FCEF04F0108E27
:1009F800043404320332023201320F2A0E500F5CE3
:100A0800D8A009EF05F00BEF05F0E5EF04F00DBCF9
:100A180010EF05F012EF05F052EF05F00F50D8A4D3
:100A280018EF05F01AEF05F024EF05F0000E016E3F
:100A3800000E026E000E036E000E046E73EF06F0D9
:100A480005500126065002220750032208500422AE
:100A580004A031EF05F033EF05F0DFEF05F010A04B
:100A680038EF05F03AEF05F040EF05F0D890103078
:100A78000109106E42EF05F0D890103201A047EF3F
:100A880005F049EF05F04AEF05F0108E0434043202
:100A98000332023201320F2ADFEF05F00550015C04
:100AA80006500258075003580450800A096E08502F
:100AB800800A0958D8B063EF05F065EF05F090EFAC
:100AC80005F00150055C096E025006580A6E035085
:100AD80007580B6E045008580C6EFF0E0924016E5F
:100AE800FF0E0A20026EFF0E0B20036EFF0E0C2075
:100AF800046E800E0D1A106C1050D8A486EF05F005
:100B080088EF05F098EF05F0010E0126000E02228D
:100B18000322042298EF05F00550015E0650025AA0
:100B28000750035A0850045A0150021003100410C9
:100B3800D8A4A1EF05F0A3EF05F0D8EF05F0105009
:100B4800D8A4A9EF05F0ABEF05F0D8EF05F0000E3B
:100B5800016E000E026E000E036E000E046E73EF3F
:100B680006F0D890013602360336043610AEBFEFD1
:100B780005F0C1EF05F0C2EF05F0018010A0C7EF46
:100B880005F0C9EF05F0CDEF05F0D8801036CFEFAE
:100B980005F0D89010360F50D8B4D5EF05F0D7EF40
:100BA80005F0D8EF05F00F0603AEDDEF05F0DFEF37
:100BB80005F0B5EF05F0000E0E6E10AEE6EF05F08D
:100BC800E8EF05F000EF06F010C009F07F0E0916F7
:100BD800D8B4F1EF05F0F3EF05F0F7EF05F0010EEB
:100BE8000E6E00EF06F001A0FCEF05F0FEEF05F039
:100BF80000EF06F0F3EF05F00E50D8B406EF06F05C
:100C080008EF06F033EF06F0010E0126000E02226F
:100C18000322042204A013EF06F015EF06F033EFC9
:100C280006F001C009F002C00AF003C00BF004C0CE
:100C38000CF00C340C320B320A32093209C001F0C4
:100C48000AC002F00BC003F00CC004F00F28D8B49F
:100C580030EF06F032EF06F033EF06F00F2A0F28D8
:100C6800D8B439EF06F03BEF06F043EF06F00F502B
:100C7800D8A441EF06F043EF06F055EF06F0000E5A
:100C8800016E000E026E000E036E000E046E0F5011
:100C9800D8A451EF06F053EF06F055EF06F0000E1A
:100CA8000D6E0FA05AEF06F05CEF06F05FEF06F04E
:100CB800038E60EF06F0039ED8900F30046E0DAEE1
:100CC80068EF06F06AEF06F06BEF06F0048E01C0DD
:100CD80001F002C002F003C003F004C004F01200E7
:100CE8000450800B0D6E04500424136E03AE7FEF86
:100CF80006F081EF06F082EF06F013801350D8B4A7
:100D080088EF06F08AEF06F09DEF06F01328D8A4C6
:100D180090EF06F092EF06F09AEF06F0000E016EE3
:100D2800000E026E000E036E000E046E038EA5EF19
:100D380006F0000E016E000E026E000E036E000E2D
:100D4800046E0850800B0D1A08500824126E07AE66
:100D5800B0EF06F0B2EF06F0B3EF06F012801250D3
:100D6800D8B4B9EF06F0BBEF06F0CEEF06F01228C4
:100D7800D8A4C1EF06F0C3EF06F0CBEF06F0000EE3
:100D8800056E000E066E000E076E000E086E078ECA
:100D9800D6EF06F0000E056E000E066E000E076E0A
:100DA800000E086E1250D8B4DCEF06F0DEEF06F045
:100DB800E6EF06F01350D8A4E4EF06F0E6EF06F0ED
:100DC800F0EF06F0000E016E000E026E000E036ECC
:100DD800000E046E88EF08F007500102F3CF18F0F8
:100DE800F4CF19F018500E6E0F6A106A116A195074
:100DF800146E156A166A176A06500202F3CF18F0C5
:100E0800F4CF19F018500E26000E0F2210221122CE
:100E180019501426000E1522162217220550030217
:100E2800F3CF18F0F4CF19F018500E26000E0F2249
:100E38001022112219501426000E152216221722EC
:100E480010C011F00FC010F00EC00FF00E6A055060
:100E58000202F3CF18F0F4CF19F018500E261950EB
:100E68000F22000E1022000E112206500102F3CFAD
:100E780018F0F4CF19F018500E2619500F22000E52
:100E88001022000E112210C011F00FC010F00EC079
:100E98000FF00E6A05500102F3CF18F0F4CF19F0E5
:100EA80018500E2619500F22000E1022000E112283
:100EB80007500202F3CF18F0F4CF19F01850142697
:100EC80019501522000E1622000E17220650030292
:100ED800F3CF18F0F4CF19F0185014261950152232
:100EE800000E1622000E172207500302F3CF18F047
:100EF800F4CF19F01850096E19500A6E0B6A0C6A73
:100F08000BC00CF00AC00BF009C00AF0096A0950BE
:100F180014260A5015220B5016220C5017220EC008
:100F280009F00FC00AF010C00BF011C00CF0190E38
:100F3800A3EF07F0D8900C320B320A320932E82EB0
:100F48009EEF07F0095014260A5015220B5016225E
:100F58000C50172210C011F00FC010F00EC00FF087
:100F68000E6A125013C009F00A6A0926000E0A22F6
:100F7800820E0924186EFF0E0A20196ED9EF07F0A9
:100F8800D890143615361636173611AECEEF07F050
:100F9800D0EF07F0D1EF07F01480D8900E360F3657
:100FA800103611361806D8A0190616AEDEEF07F06F
:100FB800E0EF07F0C4EF07F0000E126E11AEE7EF96
:100FC80007F0E9EF07F00DEF08F0FF0E0E14096EB9
:100FD800FF0E0F140A6EFF0E10140B6E7F0E111405
:100FE8000C6E09500A100B100C10D8B4FEEF07F065
:100FF80000EF08F004EF08F0010E126E0DEF08F094
:1010080014A009EF08F00BEF08F00DEF08F000EF5F
:1010180008F01250D8B413EF08F015EF08F039EFC4
:1010280008F0010E1426000E15221622172217A00A
:1010380020EF08F022EF08F039EF08F014C009F0AB
:1010480015C00AF016C00BF017C00CF00C340C32A7
:101058000B320A32093209C014F00AC015F00BC06D
:1010680016F00CC017F0184A192A19BE44EF08F0F8
:10107800195008E11828D8A044EF08F046EF08F006
:1010880050EF08F0000E146E000E156E800E166EEE
:101098007F0E176E7EEF08F019BE5DEF08F019504D
:1010A80006E11804D8B05BEF08F05DEF08F069EFCF
:1010B80008F0000E146E000E156E000E166E000E6F
:1010C800176E000E0D6E7EEF08F018C013F0FF0EBD
:1010D8001416FF0E15167F0E1616000E171613A0FF
:1010E80078EF08F07AEF08F07BEF08F0168ED890CA
:1010F8001330176E0D50171214C001F015C002F00E
:1011080016C003F017C004F0120020EE2DF0100EE8
:10111800DE6AE806FDE2000E496E100E486E25C034
:1011280001F026C002F027C003F028C004F0D7EC75
:101138000CF001C044F002C045F003C046F004C002
:1011480047F025C011F026C012F027C013F028C0C0
:1011580014F044C001F045C002F046C003F047C097
:1011680004F0010E77EC0BF001C015F002C016F088
:1011780003C017F004C018F00AEC10F011C025F0F5
:1011880012C026F013C027F014C028F0000E3F6EDE
:10119800000E3E6EECEF08F025C001F026C002F00C
:1011A80027C003F028C004F0000E056E000E066E7E
:1011B800200E076E410E086E74EC06F001C025F093
:1011C80002C026F003C027F004C028F03E4A3F2A98
:1011D80029C02AF02B6A2ABE2B062A503E5C3F50B3
:1011E800800A2C6E2B50800A2C58D8A0FEEF08F0ED
:1011F80000EF09F0D0EF08F025C001F026C002F09A
:1012080027C003F028C004F0D7EC0CF001C040F070
:1012180002C041F003C042F004C043F02950D8A4F2
:1012280018EF09F01AEF09F03CEF09F025C019F0A2
:1012380026C01AF027C01BF028C01CF0000E1D6E37
:10124800000E1E6E000E1F6E3F0E206E5AEC0DF043
:10125800D8A031EF09F033EF09F039EF09F0010EAA
:101268004426000E4522462247222968C1EF09F08C
:1012780040C001F041C002F042C003F043C004F096
:10128800010E77EC0BF001C015F002C016F003C098
:1012980017F004C018F025C011F026C012F027C0BE
:1012A80013F028C014F00AEC10F011C019F012C0A5
:1012B8001AF013C01BF014C01CF0000E1D6E000EB7
:1012C8001E6E000E1F6E3F0E206E5AEC0DF0D8A059
:1012D80070EF09F072EF09F0C1EF09F0010E402636
:1012E800000E412242224322C1EF09F04850491022
:1012F800D8A481EF09F083EF09F089EF09F0000E17
:101308000C6E010E0B6E41EC11F04806D8A0490690
:101318002D0E4824D96E000E4920DA6E40C001F027
:1013280041C002F042C003F043C004F00A0E056E4B
:10133800000E066E000E076E000E086EDCEC0DF057
:101348000150300FDF6E40C001F041C002F042C0D2
:1013580003F043C004F00A0E056E000E066E000E80
:10136800076E000E086E51EC0CF001C040F002C090
:1013780041F003C042F004C043F029062928800A3E
:101388007F0FD8B0CAEF09F0CCEF09F07AEF09F077
:101398002928D8A4D2EF09F0D4EF09F0EEEF09F02C
:1013A80048504910D8A4DBEF09F0DDEF09F0E3EF6E
:1013B80009F0000E0C6E010E0B6E41EC11F04806A0
:1013C800D8A049062D0E4824D96E000E4920DA6EA1
:1013D8002E0EDF6E48504910D8A4F5EF09F0F7EF4C
:1013E80009F0FDEF09F0000E0C6E010E0B6E41ECDA
:1013F80011F04806D8A049062D0E4824D96E000ED3
:101408004920DA6E44C001F045C002F046C003F03E
:1014180047C004F00A0E056E000E066E000E076E39
:10142800000E086EDCEC0DF00150300FDF6E44C08A
:1014380001F045C002F046C003F047C004F00A0EB0
:10144800056E000E066E000E076E000E086E51EC5B
:101458000CF001C044F002C045F003C046F004C0DF
:1014680047F047BE44EF0AF047504610451006E1E2
:101478004404D8B042EF0AF044EF0AF0EEEF09F066
:1014880028BE4BEF0AF049EF0AF065EF0AF0485022
:101498004910D8A452EF0AF054EF0AF05AEF0AF0B4
:1014A800000E0C6E010E0B6E41EC11F04806D8A030
:1014B80049062D0E4824D96E000E4920DA6E2D0EED
:1014C800DF6E2D0E48240B6E000E49200C6E48501E
:1014D80010080D6E36EC11F01200000E5C6E4D0E09
:1014E8005E6E000E5F6E68EF0BF04AC0F6FF4BC0F1
:1014F800F7FF0800F550250AD8A485EF0AF087EF12
:101508000AF05EEF0BF04C505C18D8A48EEF0AF08E
:1015180090EF0AF096EF0AF0000E0C6E010E0B6EBB
:1015280041EC11F0000E5D6E000E5B6E2CEF0BF0BF
:101538005EC0D9FF5FC0DAFFDECF01F0DDCF02F079
:10154800000E02BEFF0E036E046E010E77EC0BF068
:1015580001C057F002C058F003C059F004C05AF057
:1015680057C025F058C026F059C027F05AC028F0B7
:101578005DC029F089EC08F0020E5E26000E5F229D
:101588005C2A54EF0BF05EC0D9FF5FC0DAFFDECFF4
:1015980025F0DECF26F0DECF27F0DECF28F05DC0C5
:1015A80029F089EC08F0040E5E26000E5F22C4EFD5
:1015B8000AF0010E0C6E000E8DEC10F054EF0BF0DB
:1015C8005EC0D9FF5FC0DAFFDECF10F0DDCF11F0CB
:1015D8002AEC0FF0020E5E26000E5F22C4EF0AF01E
:1015E8005EC0D9FF5FC0DAFFDF50D6EC10F0020E04
:1015F8005E26000E5F22C4EF0AF04AC0F6FF4BC019
:10160800F7FF2F0E0800F5640CEF0BF00EEF0BF050
:1016180054EF0BF04AC0F6FF4BC0F7FF3A0E080034
:10162800F56019EF0BF01BEF0BF054EF0BF0010E08
:101638005B6E4AC0F6FF4BC0F7FF0800F5CF55F0C8
:101648005D500A0DF3505524D00F5D6E54EF0BF02A
:101658004A4A4B2A4AC0F6FF4BC0F7FF0800F5502C
:10166800556E566A5650000AD8B43DEF0BF001EF9C
:101678000BF05550630AD8B4F4EF0AF0070AD8B44F
:101688009CEF0AF0020AD8B4C7EF0AF0080AD8B4E7
:10169800DDEF0AF01D0AD8B4E4EF0AF001EF0BF011
:1016A8005B50D8A45AEF0BF05CEF0BF098EF0AF000
:1016B80066EF0BF04AC0F6FF4BC0F7FF0800F55085
:1016C8001CEC11F04A4A4B2A4AC0F6FF4BC0F7FF00
:1016D8000800F5500009D8A474EF0BF076EF0BF072
:1016E80079EF0AF01200096E0950D8B47EEF0BF0BA
:1016F80080EF0BF0A2EF0BF004BE87EF0BF085EF45
:101708000BF0A2EF0BF001C005F002C006F003C019
:1017180007F004C008F0051E061E071E081E052A4D
:10172800000E06220722082205C00BF006C00CF0A6
:1017380007C00DF008C00EF0AAEF0BF001C00BF0C7
:1017480002C00CF003C00DF004C00EF001500210EE
:1017580003100410D8A4B3EF0BF0B5EF0BF0BFEFF4
:101768000BF0000E016E000E026E000E036E000EEE
:10177800046E50EF0CF0960E0A6EC9EF0BF00A2AB1
:10178800D8900E320D320C320B32000E0B14056E4F
:10179800000E0C14066E000E0D14076EFE0E0E14CD
:1017A800086E0550061007100810D8A4DEEF0BF0DD
:1017B800E0EF0BF0C3EF0BF0EEEF0BF00A2A010E8F
:1017C8000B26000E0C220D220E22D8900E320D325E
:1017D8000C320B32000E0B14056E000E0C14066E44
:1017E800000E0D14076EFF0E0E14086E055006103D
:1017F80007100810D8A403EF0CF005EF0CF0E2EF87
:101808000BF00DEF0CF00A06D8900B360C360D369F
:101818000E360DBE12EF0CF014EF0CF01CEF0CF0AE
:10182800020E0A601AEF0CF01CEF0CF007EF0CF038
:101838000AB021EF0CF023EF0CF024EF0CF00D9E12
:10184800D8900A320AC005F0066A076A086A05C015
:1018580008F0076A066A056A05500B1206500C1252
:1018680007500D1208500E120950D8B43EEF0CF074
:1018780040EF0CF048EF0CF004BE47EF0CF045EFDA
:101888000CF048EF0CF00E8E0BC001F00CC002F00B
:101898000DC003F00EC004F01200000E0A6E08BE60
:1018A8005AEF0CF058EF0CF064EF0CF0081E071E0E
:1018B800061E056C000E062207220822010E0A6E7B
:1018C80004BE6BEF0CF069EF0CF075EF0CF0041E22
:1018D800031E021E016C000E022203220422010EC6
:1018E8000A1A000E0B6E000E0C6E000E0D6E000E26
:1018F8000E6E0550061007100810D8B486EF0CF0CD
:1019080088EF0CF0BEEF0CF0010E096E92EF0CF0B0
:10191800D8900536063607360836092A08AE97EFF6
:101928000CF099EF0CF08CEF0CF0D8900B360C36CD
:101938000D360E360550015C065002580750035804
:1019480008500458D8A0ABEF0CF0ADEF0CF0B6EF90
:101958000CF00550015E0650025A0750035A085011
:10196800045A0B80D8900832073206320532092E05
:1019780099EF0CF00A50D8B4C4EF0CF0C6EF0CF095
:10198800CEEF0CF00E1E0D1E0C1E0B6C000E0C2262
:101998000D220E220BC001F00CC002F00DC003F0A6
:1019A8000EC004F01200033404340A6E0A50D8A49E
:1019B800E0EF0CF0E2EF0CF0ECEF0CF0000E016E33
:1019C800000E026E000E036E000E046E59EF0DF04D
:1019D80001C005F002C006F003C007F004C008F01B
:1019E800200EFCEF0CF0D890083207320632053290
:1019F800E82EF7EF0CF00550096E038EFF0E011666
:101A0800FF0E0216FF0E0316000E0416960E0A5E4F
:101A18000ABE13EF0DF011EF0DF029EF0DF00A508B
:101A2800800A970FD8B01BEF0DF01DEF0DF01FEFD8
:101A38000DF0E2EF0CF0D89004320332023201329A
:101A48000A3E1FEF0DF041EF0DF01F0E0A642FEF55
:101A58000DF031EF0DF039EF0DF0E2EF0CF0D8900A
:101A680001360236033604360A060A50D8A43FEF78
:101A78000DF041EF0DF033EF0DF00950D8B447EFFA
:101A88000DF049EF0DF051EF0DF0041E031E021E7C
:101A9800016C000E02220322042201C001F002C0E0
:101AA80002F003C003F004C004F01200000E191481
:101AB800216E000E1A14226E800E1B14236E7F0EE8
:101AC8001C14246E2150221023102410D8A46FEF68
:101AD8000DF071EF0DF079EF0DF0000E196E000E9C
:101AE8001A6E000E1B6E000E1C6E000E1D14216E69
:101AF800000E1E14226E800E1F14236E7F0E2014FB
:101B0800246E2150221023102410D8A48EEF0DF03B
:101B180090EF0DF098EF0DF0000E1D6E000E1E6E8A
:101B2800000E1F6E000E206E1CAE9DEF0DF09FEF95
:101B38000DF0A8EF0DF0196C1A1ED8B01A2A1B1E4A
:101B4800D8B01B2A800E1C5620AEADEF0DF0AFEFBB
:101B58000DF0B8EF0DF01D6C1E1ED8B01E2A1F1E0A
:101B6800D8B01F2A800E2056000E191A000E1A1A15
:101B7800000E1B1A800E1C1A000E1D1A000E1E1ACB
:101B8800000E1F1A800E201A1D50195C1E501A587C
:101B98001F501B5820501C58D8B0D5EF0DF0D7EF68
:101BA8000DF0DAEF0DF0D890DBEF0DF0D8801200D1
:101BB800000E0A6E04BEE5EF0DF0E3EF0DF0EFEF57
:101BC8000DF0041E031E021E016C000E02220322E9
:101BD8000422010E0A6E08BEF6EF0DF0F4EF0DF0C8
:101BE800FEEF0DF0081E071E061E056C000E0622ED
:101BF800072208220550061007100810D8B407EF6E
:101C08000EF009EF0EF039EF0EF0010E096E13EF2A
:101C18000EF0D8900536063607360836092A08AE7B
:101C280018EF0EF01AEF0EF00DEF0EF00550015CF4
:101C3800065002580750035808500458D8A027EFF8
:101C48000EF029EF0EF031EF0EF00550015E065050
:101C5800025A0750035A0850045AD89008320732DB
:101C680006320532092E1AEF0EF00A50D8B43FEFAB
:101C78000EF041EF0EF049EF0EF0041E031E021E97
:101C8800016C000E02220322042201C001F002C0EE
:101C980002F003C003F004C004F01200B9EF0EF024
:101CA80071C003F072C004F0D8900336043673C0D4
:101CB80005F074C006F00350052604500622020EF3
:101CC8000524D96E000E0620DA6EDECF07F0DDCFD0
:101CD80008F071C003F072C004F0D89003360436DF
:101CE80073C005F074C006F00350052604500622A0
:101CF800420E0524D96E000E0620DA6EDECF09F0FA
:101D0800DDCF0AF009C001F00AC002F002D897EF4F
:101D18000EF00500FA6E0750FD6E0850FE6EF85082
:101D2800FF6EFA50120000017151036E7251046E79
:101D3800010E715F000E725B04BEADEF0EF0045031
:101D480006E10304D8B0ABEF0EF0ADEF0EF054EFA0
:101D58000EF073C0D9FF74C0DAFFDECF73F0DDCFA9
:101D680074F0000E726F200E716F000173517411C0
:101D7800D8A4C1EF0EF0C3EF0EF097EF0EF01200EB
:101D8800066E04500510D8A4CCEF0EF0CEEF0EF07E
:101D9800D0EF0EF029EF0FF0000E096E00019151FF
:101DA800FF0A8B1602C007F003C008F00950D8A438
:101DB800E0EF0EF0E2EF0EF0F7EF0EF00604D8A415
:101DC800E8EF0EF0EAEF0EF0F1EF0EF0010E0CEC7A
:101DD80011F0010E096EF4EF0EF0000E0CEC11F08C
:101DE800000E0CEC11F0800E0A6E10EF0FF007C019
:101DF800F6FF08C0F7FFF86A070EF76403D008007B
:101E0800F55005D0F6CFE9FFF7CFEAFFEF500A14F7
:101E18000CEC11F0D8900A320A50D8A416EF0FF043
:101E280018EF0FF0FBEF0EF0074A082A0406D8A0B7
:101E3800050604500510D8A424EF0FF026EF0FF084
:101E4800DAEF0EF0000191518B121200000E146EA1
:101E58002FEF0FF0142A14501024126E000E1120C8
:101E6800136E12C0F6FF13C0F7FFF86A070EF76487
:101E780003D00800F55005D0F6CFE9FFF7CFEAFF09
:101E8800EF500009D8A44BEF0FF04DEF0FF02EEFF5
:101E98000FF0100E146453EF0FF055EF0FF06FEFC3
:101EA8000FF010C00BF011C00CF0100E0D6E36ECD8
:101EB80011F0010E0C6E000E8DEC10F0100E1024B7
:101EC8000B6E000E11200C6E1450F00F0D6E36ECD8
:101ED80011F077EF0FF010C00BF011C00CF014C028
:101EE8000DF036EC11F01200700ED3120F0EC11265
:101EF800C68AC650F00B0209C66E000E106E400E60
:101F08000F6EE9EC10F070EC10F0010E4A6E080E3E
:101F18004B6E030E4C6E9A0E4D6E990E4E6E490E18
:101F28004F6E410E506E210E516E080E526E000E0D
:101F3800546E000E536E71EC0AF0100E00018E6F95
:101F48003B0E8D6F990E0400E82EFDD78D2FFBD721
:101F58008E2FF9D70400850E0C6E000E0D6E000E44
:101F6800BEEC0FF07D0E0C6E000E0D6E010EBEEC79
:101F78000FF012000E6E070E0E160E38E842F80B20
:101F8800400929EC11F0000E106E000E0F6E0F5074
:101F98000C24D96E10500D20DA6EDF501CEC11F0B5
:101FA8000F4A102A10BEE2EF0FF0105009E1080E98
:101FB8000F5CD8A0E2EF0FF0E4EF0FF0CBEF0FF0DB
:101FC8001200020E0E6EF20E0400E82EFDD70E2E41
:101FD800FBD7040000F000017751280929EC11F023
:101FE800080E29EC11F0FCEC10F0020E0001756FE0
:101FF8007551040929EC11F052EC11F0040E00019E
:10200800766F7651080929EC11F01200000E151AA6
:10201800000E161A000E171A800E181A11C001F0B9
:1020280012C002F013C003F014C004F015C005F08C
:1020380016C006F017C007F018C008F014EC04F03A
:1020480001C011F002C012F003C013F004C014F074
:10205800120078EC0FF0150E4A6E080E4B6E010E4A
:102068004C6E78C04DF04E6A71EC0AF00001782B86
:102078000B0E0001906F260E8F6F5D0EE82EFED7B7
:102088008F2FFCD7902FFAD700D0FCEC10F02FEF51
:1020980010F000EF00F0940EF66E220EF76E000EB0
:1020A800F86E00EE7DF010EE10F00900F5CFEEFFAF
:1020B800E550E150FAE101EE00F0820EEE6AE80622
:1020C800FDE100EE60F01D0EEE6AE806FDE1000E8F
:1020D800F86E00012DEF10F0000E936E9384210E20
:1020E800C612070E096E170E086E6A0EE82EFED786
:1020F800082EFCD7092EFAD700D0840EBFEC10F0BA
:10210800200E036E900E046E040E056EA7EC10F000
:1021180012000D6E0C50D8A494EF10F096EF10F04A
:102128009CEF10F0000E0F6E000E0E6EA0EF10F078
:10213800000E0F6E400E0E6E0D503F0B0E108009F4
:1021480029EC11F01200000E076E000E066E035007
:10215800BFEC10F0064A072A07BEBCEF10F0075084
:1021680009E1030E065CD8A0BCEF10F0BEEF10F03A
:10217800ABEF10F01200026EC9509E96C69E02C0C8
:10218800C9FFC6AECAEF10F0CCEF10F0CEEF10F0DA
:10219800D5EF10F09EA6D3EF10F0D5EF10F0CEEFEC
:1021A80010F012000D6E070E0D64DDEF10F0DFEF7A
:1021B80010F0E5EF10F0000E0C6E010E0B6E41EC06
:1021C80011F00D501CEC11F012000FC091F0000E30
:1021D8000001776F9490948294940F50FF0A94169C
:1021E8000F508B12020E0D6E100EE5EC0FF0120060
:1021F800010E29EC11F0020E0C6EF20E0400E82E0E
:10220800FDD70C2EFBD7040000F052EC11F01200A1
:10221800016E8B900150D8B414EF11F016EF11F045
:1022280019EF11F08B841AEF11F08B948B80120048
:102238000B6E0B0E026E000E036E000E056E010E85
:10224800046E010EC4EC0EF012000B6E0B0E026E43
:10225800000E036E000E056E010E046E000EC4EC37
:102268000EF012000BC002F00CC003F00DC004F019
:10227800056A010EC4EC0EF0120052EC0EF00BC011
:1022880001F00CC002F056EC11F012000000000A38
:102298001500000000001F00001B0000020E29ECC2
:0C22A80011F0120056EF11F012001200AD
:020000040020DA
:08000000FFFFFFFFFFFFFFFF00
:020000040030CA
:0E00000000091F1EFF8385FF0FC00FE00F4099
:00000001FF
